{
  "contractName": "NFCool",
  "abi": [
    {
      "inputs": [],
      "stateMutability": "nonpayable",
      "type": "constructor"
    },
    {
      "anonymous": false,
      "inputs": [
        {
          "indexed": true,
          "internalType": "address",
          "name": "account",
          "type": "address"
        },
        {
          "indexed": true,
          "internalType": "address",
          "name": "operator",
          "type": "address"
        },
        {
          "indexed": false,
          "internalType": "bool",
          "name": "approved",
          "type": "bool"
        }
      ],
      "name": "ApprovalForAll",
      "type": "event"
    },
    {
      "anonymous": false,
      "inputs": [
        {
          "indexed": false,
          "internalType": "address",
          "name": "account",
          "type": "address"
        }
      ],
      "name": "Paused",
      "type": "event"
    },
    {
      "anonymous": false,
      "inputs": [
        {
          "indexed": true,
          "internalType": "bytes32",
          "name": "role",
          "type": "bytes32"
        },
        {
          "indexed": true,
          "internalType": "bytes32",
          "name": "previousAdminRole",
          "type": "bytes32"
        },
        {
          "indexed": true,
          "internalType": "bytes32",
          "name": "newAdminRole",
          "type": "bytes32"
        }
      ],
      "name": "RoleAdminChanged",
      "type": "event"
    },
    {
      "anonymous": false,
      "inputs": [
        {
          "indexed": true,
          "internalType": "bytes32",
          "name": "role",
          "type": "bytes32"
        },
        {
          "indexed": true,
          "internalType": "address",
          "name": "account",
          "type": "address"
        },
        {
          "indexed": true,
          "internalType": "address",
          "name": "sender",
          "type": "address"
        }
      ],
      "name": "RoleGranted",
      "type": "event"
    },
    {
      "anonymous": false,
      "inputs": [
        {
          "indexed": true,
          "internalType": "bytes32",
          "name": "role",
          "type": "bytes32"
        },
        {
          "indexed": true,
          "internalType": "address",
          "name": "account",
          "type": "address"
        },
        {
          "indexed": true,
          "internalType": "address",
          "name": "sender",
          "type": "address"
        }
      ],
      "name": "RoleRevoked",
      "type": "event"
    },
    {
      "anonymous": false,
      "inputs": [
        {
          "indexed": true,
          "internalType": "address",
          "name": "operator",
          "type": "address"
        },
        {
          "indexed": true,
          "internalType": "address",
          "name": "from",
          "type": "address"
        },
        {
          "indexed": true,
          "internalType": "address",
          "name": "to",
          "type": "address"
        },
        {
          "indexed": false,
          "internalType": "uint256[]",
          "name": "ids",
          "type": "uint256[]"
        },
        {
          "indexed": false,
          "internalType": "uint256[]",
          "name": "values",
          "type": "uint256[]"
        }
      ],
      "name": "TransferBatch",
      "type": "event"
    },
    {
      "anonymous": false,
      "inputs": [
        {
          "indexed": true,
          "internalType": "address",
          "name": "operator",
          "type": "address"
        },
        {
          "indexed": true,
          "internalType": "address",
          "name": "from",
          "type": "address"
        },
        {
          "indexed": true,
          "internalType": "address",
          "name": "to",
          "type": "address"
        },
        {
          "indexed": false,
          "internalType": "uint256",
          "name": "id",
          "type": "uint256"
        },
        {
          "indexed": false,
          "internalType": "uint256",
          "name": "value",
          "type": "uint256"
        }
      ],
      "name": "TransferSingle",
      "type": "event"
    },
    {
      "anonymous": false,
      "inputs": [
        {
          "indexed": false,
          "internalType": "string",
          "name": "value",
          "type": "string"
        },
        {
          "indexed": true,
          "internalType": "uint256",
          "name": "id",
          "type": "uint256"
        }
      ],
      "name": "URI",
      "type": "event"
    },
    {
      "anonymous": false,
      "inputs": [
        {
          "indexed": false,
          "internalType": "address",
          "name": "account",
          "type": "address"
        }
      ],
      "name": "Unpaused",
      "type": "event"
    },
    {
      "inputs": [],
      "name": "DEFAULT_ADMIN_ROLE",
      "outputs": [
        {
          "internalType": "bytes32",
          "name": "",
          "type": "bytes32"
        }
      ],
      "stateMutability": "view",
      "type": "function"
    },
    {
      "inputs": [],
      "name": "MINTER_ROLE",
      "outputs": [
        {
          "internalType": "bytes32",
          "name": "",
          "type": "bytes32"
        }
      ],
      "stateMutability": "view",
      "type": "function"
    },
    {
      "inputs": [],
      "name": "PAUSER_ROLE",
      "outputs": [
        {
          "internalType": "bytes32",
          "name": "",
          "type": "bytes32"
        }
      ],
      "stateMutability": "view",
      "type": "function"
    },
    {
      "inputs": [
        {
          "internalType": "address",
          "name": "account",
          "type": "address"
        },
        {
          "internalType": "uint256",
          "name": "id",
          "type": "uint256"
        }
      ],
      "name": "balanceOf",
      "outputs": [
        {
          "internalType": "uint256",
          "name": "",
          "type": "uint256"
        }
      ],
      "stateMutability": "view",
      "type": "function"
    },
    {
      "inputs": [
        {
          "internalType": "address[]",
          "name": "accounts",
          "type": "address[]"
        },
        {
          "internalType": "uint256[]",
          "name": "ids",
          "type": "uint256[]"
        }
      ],
      "name": "balanceOfBatch",
      "outputs": [
        {
          "internalType": "uint256[]",
          "name": "",
          "type": "uint256[]"
        }
      ],
      "stateMutability": "view",
      "type": "function"
    },
    {
      "inputs": [
        {
          "internalType": "address",
          "name": "account",
          "type": "address"
        },
        {
          "internalType": "uint256",
          "name": "id",
          "type": "uint256"
        },
        {
          "internalType": "uint256",
          "name": "value",
          "type": "uint256"
        }
      ],
      "name": "burn",
      "outputs": [],
      "stateMutability": "nonpayable",
      "type": "function"
    },
    {
      "inputs": [
        {
          "internalType": "address",
          "name": "account",
          "type": "address"
        },
        {
          "internalType": "uint256[]",
          "name": "ids",
          "type": "uint256[]"
        },
        {
          "internalType": "uint256[]",
          "name": "values",
          "type": "uint256[]"
        }
      ],
      "name": "burnBatch",
      "outputs": [],
      "stateMutability": "nonpayable",
      "type": "function"
    },
    {
      "inputs": [
        {
          "internalType": "bytes32",
          "name": "role",
          "type": "bytes32"
        }
      ],
      "name": "getRoleAdmin",
      "outputs": [
        {
          "internalType": "bytes32",
          "name": "",
          "type": "bytes32"
        }
      ],
      "stateMutability": "view",
      "type": "function"
    },
    {
      "inputs": [
        {
          "internalType": "bytes32",
          "name": "role",
          "type": "bytes32"
        },
        {
          "internalType": "uint256",
          "name": "index",
          "type": "uint256"
        }
      ],
      "name": "getRoleMember",
      "outputs": [
        {
          "internalType": "address",
          "name": "",
          "type": "address"
        }
      ],
      "stateMutability": "view",
      "type": "function"
    },
    {
      "inputs": [
        {
          "internalType": "bytes32",
          "name": "role",
          "type": "bytes32"
        }
      ],
      "name": "getRoleMemberCount",
      "outputs": [
        {
          "internalType": "uint256",
          "name": "",
          "type": "uint256"
        }
      ],
      "stateMutability": "view",
      "type": "function"
    },
    {
      "inputs": [
        {
          "internalType": "bytes32",
          "name": "role",
          "type": "bytes32"
        },
        {
          "internalType": "address",
          "name": "account",
          "type": "address"
        }
      ],
      "name": "grantRole",
      "outputs": [],
      "stateMutability": "nonpayable",
      "type": "function"
    },
    {
      "inputs": [
        {
          "internalType": "bytes32",
          "name": "role",
          "type": "bytes32"
        },
        {
          "internalType": "address",
          "name": "account",
          "type": "address"
        }
      ],
      "name": "hasRole",
      "outputs": [
        {
          "internalType": "bool",
          "name": "",
          "type": "bool"
        }
      ],
      "stateMutability": "view",
      "type": "function"
    },
    {
      "inputs": [
        {
          "internalType": "address",
          "name": "account",
          "type": "address"
        },
        {
          "internalType": "address",
          "name": "operator",
          "type": "address"
        }
      ],
      "name": "isApprovedForAll",
      "outputs": [
        {
          "internalType": "bool",
          "name": "",
          "type": "bool"
        }
      ],
      "stateMutability": "view",
      "type": "function"
    },
    {
      "inputs": [
        {
          "internalType": "address",
          "name": "to",
          "type": "address"
        },
        {
          "internalType": "uint256",
          "name": "id",
          "type": "uint256"
        },
        {
          "internalType": "uint256",
          "name": "amount",
          "type": "uint256"
        },
        {
          "internalType": "bytes",
          "name": "data",
          "type": "bytes"
        }
      ],
      "name": "mint",
      "outputs": [],
      "stateMutability": "nonpayable",
      "type": "function"
    },
    {
      "inputs": [
        {
          "internalType": "address",
          "name": "to",
          "type": "address"
        },
        {
          "internalType": "uint256[]",
          "name": "ids",
          "type": "uint256[]"
        },
        {
          "internalType": "uint256[]",
          "name": "amounts",
          "type": "uint256[]"
        },
        {
          "internalType": "bytes",
          "name": "data",
          "type": "bytes"
        }
      ],
      "name": "mintBatch",
      "outputs": [],
      "stateMutability": "nonpayable",
      "type": "function"
    },
    {
      "inputs": [
        {
          "internalType": "address",
          "name": "",
          "type": "address"
        },
        {
          "internalType": "address",
          "name": "",
          "type": "address"
        },
        {
          "internalType": "uint256[]",
          "name": "",
          "type": "uint256[]"
        },
        {
          "internalType": "uint256[]",
          "name": "",
          "type": "uint256[]"
        },
        {
          "internalType": "bytes",
          "name": "",
          "type": "bytes"
        }
      ],
      "name": "onERC1155BatchReceived",
      "outputs": [
        {
          "internalType": "bytes4",
          "name": "",
          "type": "bytes4"
        }
      ],
      "stateMutability": "nonpayable",
      "type": "function"
    },
    {
      "inputs": [
        {
          "internalType": "address",
          "name": "",
          "type": "address"
        },
        {
          "internalType": "address",
          "name": "",
          "type": "address"
        },
        {
          "internalType": "uint256",
          "name": "",
          "type": "uint256"
        },
        {
          "internalType": "uint256",
          "name": "",
          "type": "uint256"
        },
        {
          "internalType": "bytes",
          "name": "",
          "type": "bytes"
        }
      ],
      "name": "onERC1155Received",
      "outputs": [
        {
          "internalType": "bytes4",
          "name": "",
          "type": "bytes4"
        }
      ],
      "stateMutability": "nonpayable",
      "type": "function"
    },
    {
      "inputs": [],
      "name": "pause",
      "outputs": [],
      "stateMutability": "nonpayable",
      "type": "function"
    },
    {
      "inputs": [],
      "name": "paused",
      "outputs": [
        {
          "internalType": "bool",
          "name": "",
          "type": "bool"
        }
      ],
      "stateMutability": "view",
      "type": "function"
    },
    {
      "inputs": [
        {
          "internalType": "bytes32",
          "name": "role",
          "type": "bytes32"
        },
        {
          "internalType": "address",
          "name": "account",
          "type": "address"
        }
      ],
      "name": "renounceRole",
      "outputs": [],
      "stateMutability": "nonpayable",
      "type": "function"
    },
    {
      "inputs": [
        {
          "internalType": "bytes32",
          "name": "role",
          "type": "bytes32"
        },
        {
          "internalType": "address",
          "name": "account",
          "type": "address"
        }
      ],
      "name": "revokeRole",
      "outputs": [],
      "stateMutability": "nonpayable",
      "type": "function"
    },
    {
      "inputs": [
        {
          "internalType": "address",
          "name": "from",
          "type": "address"
        },
        {
          "internalType": "address",
          "name": "to",
          "type": "address"
        },
        {
          "internalType": "uint256[]",
          "name": "ids",
          "type": "uint256[]"
        },
        {
          "internalType": "uint256[]",
          "name": "amounts",
          "type": "uint256[]"
        },
        {
          "internalType": "bytes",
          "name": "data",
          "type": "bytes"
        }
      ],
      "name": "safeBatchTransferFrom",
      "outputs": [],
      "stateMutability": "nonpayable",
      "type": "function"
    },
    {
      "inputs": [
        {
          "internalType": "address",
          "name": "from",
          "type": "address"
        },
        {
          "internalType": "address",
          "name": "to",
          "type": "address"
        },
        {
          "internalType": "uint256",
          "name": "id",
          "type": "uint256"
        },
        {
          "internalType": "uint256",
          "name": "amount",
          "type": "uint256"
        },
        {
          "internalType": "bytes",
          "name": "data",
          "type": "bytes"
        }
      ],
      "name": "safeTransferFrom",
      "outputs": [],
      "stateMutability": "nonpayable",
      "type": "function"
    },
    {
      "inputs": [
        {
          "internalType": "address",
          "name": "operator",
          "type": "address"
        },
        {
          "internalType": "bool",
          "name": "approved",
          "type": "bool"
        }
      ],
      "name": "setApprovalForAll",
      "outputs": [],
      "stateMutability": "nonpayable",
      "type": "function"
    },
    {
      "inputs": [],
      "name": "unpause",
      "outputs": [],
      "stateMutability": "nonpayable",
      "type": "function"
    },
    {
      "inputs": [
        {
          "internalType": "uint256",
          "name": "",
          "type": "uint256"
        }
      ],
      "name": "uri",
      "outputs": [
        {
          "internalType": "string",
          "name": "",
          "type": "string"
        }
      ],
      "stateMutability": "view",
      "type": "function"
    },
    {
      "inputs": [
        {
          "internalType": "uint256",
          "name": "tokenId",
          "type": "uint256"
        }
      ],
      "name": "tokenData",
      "outputs": [
        {
          "components": [
            {
              "internalType": "string",
              "name": "uri",
              "type": "string"
            },
            {
              "internalType": "string",
              "name": "name",
              "type": "string"
            }
          ],
          "internalType": "struct NFCool.TokenData",
          "name": "",
          "type": "tuple"
        }
      ],
      "stateMutability": "view",
      "type": "function"
    },
    {
      "inputs": [
        {
          "internalType": "uint256",
          "name": "tokenId",
          "type": "uint256"
        },
        {
          "internalType": "uint256",
          "name": "tokenUnitId",
          "type": "uint256"
        }
      ],
      "name": "tokenUnitData",
      "outputs": [
        {
          "components": [
            {
              "internalType": "address",
              "name": "owner",
              "type": "address"
            },
            {
              "internalType": "string",
              "name": "nfcId",
              "type": "string"
            },
            {
              "internalType": "string",
              "name": "status",
              "type": "string"
            }
          ],
          "internalType": "struct NFCool.TokenUnitData",
          "name": "",
          "type": "tuple"
        }
      ],
      "stateMutability": "view",
      "type": "function"
    },
    {
      "inputs": [
        {
          "internalType": "string",
          "name": "tokenUri",
          "type": "string"
        },
        {
          "internalType": "string",
          "name": "tokenName",
          "type": "string"
        },
        {
          "internalType": "bytes",
          "name": "data",
          "type": "bytes"
        }
      ],
      "name": "mintToken",
      "outputs": [
        {
          "internalType": "uint256",
          "name": "",
          "type": "uint256"
        }
      ],
      "stateMutability": "nonpayable",
      "type": "function"
    },
    {
      "inputs": [
        {
          "internalType": "uint256",
          "name": "tokenId",
          "type": "uint256"
        },
        {
          "internalType": "string",
          "name": "nfcId",
          "type": "string"
        },
        {
          "internalType": "bytes",
          "name": "data",
          "type": "bytes"
        }
      ],
      "name": "mintTokenUnit",
      "outputs": [
        {
          "internalType": "uint256",
          "name": "",
          "type": "uint256"
        }
      ],
      "stateMutability": "nonpayable",
      "type": "function"
    },
    {
      "inputs": [
        {
          "internalType": "bytes4",
          "name": "interfaceId",
          "type": "bytes4"
        }
      ],
      "name": "supportsInterface",
      "outputs": [
        {
          "internalType": "bool",
          "name": "",
          "type": "bool"
        }
      ],
      "stateMutability": "view",
      "type": "function"
    }
  ],
  "bytecode": "0x60806040523480156200001157600080fd5b5060405180602001604052806000815250806200003481620000fd60201b60201c565b506000600560006101000a81548160ff021916908315150217905550620000746000801b620000686200011960201b60201c565b6200012160201b60201c565b620000b57f9f2df0fed2c77648de5860a4cc508cd0818c85b8b8a1ab4ceeef8d981c8956a6620000a96200011960201b60201c565b6200012160201b60201c565b620000f67f65d7a28e3265b37a6474929f336521b332c1681b933f6cb9f3376673440d862a620000ea6200011960201b60201c565b6200012160201b60201c565b50620004c4565b806004908051906020019062000115929190620003af565b5050565b600033905090565b6200013882826200016960201b6200193d1760201c565b6200016481600160008581526020019081526020016000206200017f60201b6200194b1790919060201c565b505050565b6200017b8282620001b760201b60201c565b5050565b6000620001af836000018373ffffffffffffffffffffffffffffffffffffffff1660001b620002a860201b60201c565b905092915050565b620001c982826200032260201b60201c565b620002a457600160008084815260200190815260200160002060000160008373ffffffffffffffffffffffffffffffffffffffff1673ffffffffffffffffffffffffffffffffffffffff16815260200190815260200160002060006101000a81548160ff021916908315150217905550620002496200011960201b60201c565b73ffffffffffffffffffffffffffffffffffffffff168173ffffffffffffffffffffffffffffffffffffffff16837f2f8788117e7eff1d82e926ec794901d17c78024a50270940304540a733656f0d60405160405180910390a45b5050565b6000620002bc83836200038c60201b60201c565b620003175782600001829080600181540180825580915050600190039060005260206000200160009091909190915055826000018054905083600101600084815260200190815260200160002081905550600190506200031c565b600090505b92915050565b600080600084815260200190815260200160002060000160008373ffffffffffffffffffffffffffffffffffffffff1673ffffffffffffffffffffffffffffffffffffffff16815260200190815260200160002060009054906101000a900460ff16905092915050565b600080836001016000848152602001908152602001600020541415905092915050565b828054620003bd906200045f565b90600052602060002090601f016020900481019282620003e157600085556200042d565b82601f10620003fc57805160ff19168380011785556200042d565b828001600101855582156200042d579182015b828111156200042c5782518255916020019190600101906200040f565b5b5090506200043c919062000440565b5090565b5b808211156200045b57600081600090555060010162000441565b5090565b600060028204905060018216806200047857607f821691505b602082108114156200048f576200048e62000495565b5b50919050565b7f4e487b7100000000000000000000000000000000000000000000000000000000600052602260045260246000fd5b615a6480620004d46000396000f3fe608060405234801561001057600080fd5b50600436106101e45760003560e01c80638456cb591161010f578063ca15c873116100a2578063e985e9c511610071578063e985e9c5146105c5578063f23a6e61146105f5578063f242432a14610625578063f5298aca14610641576101e4565b8063ca15c8731461053d578063d53913931461056d578063d547741f1461058b578063e63ab1e9146105a7576101e4565b8063a22cb465116100de578063a22cb46514610491578063b4b5b48f146104ad578063bc197c81146104dd578063c3d042791461050d576101e4565b80638456cb59146104095780639010d07c1461041357806391d1485414610443578063a217fddf14610473576101e4565b806336568abe116101875780635c975abb116101565780635c975abb146103835780636648b1cb146103a15780636b20c454146103d1578063731133e9146103ed576101e4565b806336568abe146102fd5780633e80bb74146103195780633f4ba83a146103495780634e1273f414610353576101e4565b80631f7fdffa116101c35780631f7fdffa14610279578063248a9ca3146102955780632eb2c2d6146102c55780632f2ff15d146102e1576101e4565b8062fdd58e146101e957806301ffc9a7146102195780630e89341c14610249575b600080fd5b61020360048036038101906101fe91906140d8565b61065d565b6040516102109190615450565b60405180910390f35b610233600480360381019061022e91906142eb565b610727565b60405161024091906150f9565b60405180910390f35b610263600480360381019061025e91906143de565b610739565b604051610270919061514a565b60405180910390f35b610293600480360381019061028e9190613ff1565b6107cd565b005b6102af60048036038101906102aa919061424a565b61084f565b6040516102bc9190615114565b60405180910390f35b6102df60048036038101906102da9190613e24565b61086e565b005b6102fb60048036038101906102f69190614273565b61090f565b005b61031760048036038101906103129190614273565b610943565b005b610333600480360381019061032e919061448b565b610977565b604051610340919061542e565b60405180910390f35b610351610b30565b005b61036d600480360381019061036891906141de565b610baa565b60405161037a91906150a0565b60405180910390f35b61038b610d5b565b60405161039891906150f9565b60405180910390f35b6103bb60048036038101906103b6919061433d565b610d72565b6040516103c89190615450565b60405180910390f35b6103eb60048036038101906103e69190613f72565b610f58565b005b61040760048036038101906104029190614163565b610ff5565b005b610411611077565b005b61042d600480360381019061042891906142af565b6110f1565b60405161043a9190614fc3565b60405180910390f35b61045d60048036038101906104589190614273565b611120565b60405161046a91906150f9565b60405180910390f35b61047b61118a565b6040516104889190615114565b60405180910390f35b6104ab60048036038101906104a6919061409c565b611191565b005b6104c760048036038101906104c291906143de565b611312565b6040516104d4919061540c565b60405180910390f35b6104f760048036038101906104f29190613e24565b611463565b604051610504919061512f565b60405180910390f35b61052760048036038101906105229190614407565b611478565b6040516105349190615450565b60405180910390f35b6105576004803603810190610552919061424a565b6116b6565b6040516105649190615450565b60405180910390f35b6105756116da565b6040516105829190615114565b60405180910390f35b6105a560048036038101906105a09190614273565b6116fe565b005b6105af611732565b6040516105bc9190615114565b60405180910390f35b6105df60048036038101906105da9190613de8565b611756565b6040516105ec91906150f9565b60405180910390f35b61060f600480360381019061060a9190613ee3565b6117ea565b60405161061c919061512f565b60405180910390f35b61063f600480360381019061063a9190613ee3565b6117ff565b005b61065b60048036038101906106569190614114565b6118a0565b005b60008073ffffffffffffffffffffffffffffffffffffffff168373ffffffffffffffffffffffffffffffffffffffff1614156106ce576040517f08c379a00000000000000000000000000000000000000000000000000000000081526004016106c5906151ec565b60405180910390fd5b6002600083815260200190815260200160002060008473ffffffffffffffffffffffffffffffffffffffff1673ffffffffffffffffffffffffffffffffffffffff16815260200190815260200160002054905092915050565b60006107328261197b565b9050919050565b606060048054610748906157b5565b80601f0160208091040260200160405190810160405280929190818152602001828054610774906157b5565b80156107c15780601f10610796576101008083540402835291602001916107c1565b820191906000526020600020905b8154815290600101906020018083116107a457829003601f168201915b50505050509050919050565b6107fe7f9f2df0fed2c77648de5860a4cc508cd0818c85b8b8a1ab4ceeef8d981c8956a66107f96119f5565b611120565b61083d576040517f08c379a0000000000000000000000000000000000000000000000000000000008152600401610834906152ec565b60405180910390fd5b610849848484846119fd565b50505050565b6000806000838152602001908152602001600020600101549050919050565b6108766119f5565b73ffffffffffffffffffffffffffffffffffffffff168573ffffffffffffffffffffffffffffffffffffffff1614806108bc57506108bb856108b66119f5565b611756565b5b6108fb576040517f08c379a00000000000000000000000000000000000000000000000000000000081526004016108f2906152ac565b60405180910390fd5b6109088585858585611c68565b5050505050565b6109198282611fcb565b61093e816001600085815260200190815260200160002061194b90919063ffffffff16565b505050565b61094d8282611ff4565b610972816001600085815260200190815260200160002061207790919063ffffffff16565b505050565b61097f613a98565b6008600084815260200190815260200160002060008381526020019081526020016000206040518060600160405290816000820160009054906101000a900473ffffffffffffffffffffffffffffffffffffffff1673ffffffffffffffffffffffffffffffffffffffff1673ffffffffffffffffffffffffffffffffffffffff168152602001600182018054610a14906157b5565b80601f0160208091040260200160405190810160405280929190818152602001828054610a40906157b5565b8015610a8d5780601f10610a6257610100808354040283529160200191610a8d565b820191906000526020600020905b815481529060010190602001808311610a7057829003601f168201915b50505050508152602001600282018054610aa6906157b5565b80601f0160208091040260200160405190810160405280929190818152602001828054610ad2906157b5565b8015610b1f5780601f10610af457610100808354040283529160200191610b1f565b820191906000526020600020905b815481529060010190602001808311610b0257829003601f168201915b505050505081525050905092915050565b610b617f65d7a28e3265b37a6474929f336521b332c1681b933f6cb9f3376673440d862a610b5c6119f5565b611120565b610ba0576040517f08c379a0000000000000000000000000000000000000000000000000000000008152600401610b979061532c565b60405180910390fd5b610ba86120a7565b565b60608151835114610bf0576040517f08c379a0000000000000000000000000000000000000000000000000000000008152600401610be79061538c565b60405180910390fd5b6000835167ffffffffffffffff811115610c33577f4e487b7100000000000000000000000000000000000000000000000000000000600052604160045260246000fd5b604051908082528060200260200182016040528015610c615781602001602082028036833780820191505090505b50905060005b8451811015610d5057610cfa858281518110610cac577f4e487b7100000000000000000000000000000000000000000000000000000000600052603260045260246000fd5b6020026020010151858381518110610ced577f4e487b7100000000000000000000000000000000000000000000000000000000600052603260045260246000fd5b602002602001015161065d565b828281518110610d33577f4e487b7100000000000000000000000000000000000000000000000000000000600052603260045260246000fd5b60200260200101818152505080610d49906157e7565b9050610c67565b508091505092915050565b6000600560009054906101000a900460ff16905090565b6000610da57f9f2df0fed2c77648de5860a4cc508cd0818c85b8b8a1ab4ceeef8d981c8956a6610da06119f5565b611120565b610de4576040517f08c379a0000000000000000000000000000000000000000000000000000000008152600401610ddb906152ec565b60405180910390fd5b610e0330600560019054906101000a900460ff1660ff16600085612149565b604051806040016040528087878080601f016020809104026020016040519081016040528093929190818152602001838380828437600081840152601f19601f82011690508083019250505050505050815260200185858080601f016020809104026020016040519081016040528093929190818152602001838380828437600081840152601f19601f8201169050808301925050505050505081525060076000600560019054906101000a900460ff1660ff1681526020019081526020016000206000820151816000019080519060200190610ee1929190613acf565b506020820151816001019080519060200190610efe929190613acf565b509050506005600181819054906101000a900460ff1680929190610f2190615830565b91906101000a81548160ff021916908360ff16021790555050600560019054906101000a900460ff1660ff16905095945050505050565b610f606119f5565b73ffffffffffffffffffffffffffffffffffffffff168373ffffffffffffffffffffffffffffffffffffffff161480610fa65750610fa583610fa06119f5565b611756565b5b610fe5576040517f08c379a0000000000000000000000000000000000000000000000000000000008152600401610fdc9061524c565b60405180910390fd5b610ff08383836122e0565b505050565b6110267f9f2df0fed2c77648de5860a4cc508cd0818c85b8b8a1ab4ceeef8d981c8956a66110216119f5565b611120565b611065576040517f08c379a000000000000000000000000000000000000000000000000000000000815260040161105c906152ec565b60405180910390fd5b61107184848484612149565b50505050565b6110a87f65d7a28e3265b37a6474929f336521b332c1681b933f6cb9f3376673440d862a6110a36119f5565b611120565b6110e7576040517f08c379a00000000000000000000000000000000000000000000000000000000081526004016110de9061534c565b60405180910390fd5b6110ef6125df565b565b6000611118826001600086815260200190815260200160002061268290919063ffffffff16565b905092915050565b600080600084815260200190815260200160002060000160008373ffffffffffffffffffffffffffffffffffffffff1673ffffffffffffffffffffffffffffffffffffffff16815260200190815260200160002060009054906101000a900460ff16905092915050565b6000801b81565b8173ffffffffffffffffffffffffffffffffffffffff166111b06119f5565b73ffffffffffffffffffffffffffffffffffffffff161415611207576040517f08c379a00000000000000000000000000000000000000000000000000000000081526004016111fe9061536c565b60405180910390fd5b80600360006112146119f5565b73ffffffffffffffffffffffffffffffffffffffff1673ffffffffffffffffffffffffffffffffffffffff16815260200190815260200160002060008473ffffffffffffffffffffffffffffffffffffffff1673ffffffffffffffffffffffffffffffffffffffff16815260200190815260200160002060006101000a81548160ff0219169083151502179055508173ffffffffffffffffffffffffffffffffffffffff166112c16119f5565b73ffffffffffffffffffffffffffffffffffffffff167f17307eab39ab6107e8899845ad3d59bd9653f200f220920489ca2b5937696c318360405161130691906150f9565b60405180910390a35050565b61131a613b55565b60076000838152602001908152602001600020604051806040016040529081600082018054611348906157b5565b80601f0160208091040260200160405190810160405280929190818152602001828054611374906157b5565b80156113c15780601f10611396576101008083540402835291602001916113c1565b820191906000526020600020905b8154815290600101906020018083116113a457829003601f168201915b505050505081526020016001820180546113da906157b5565b80601f0160208091040260200160405190810160405280929190818152602001828054611406906157b5565b80156114535780601f1061142857610100808354040283529160200191611453565b820191906000526020600020905b81548152906001019060200180831161143657829003601f168201915b5050505050815250509050919050565b600063bc197c8160e01b905095945050505050565b60006114ab7f9f2df0fed2c77648de5860a4cc508cd0818c85b8b8a1ab4ceeef8d981c8956a66114a66119f5565b611120565b6114ea576040517f08c379a00000000000000000000000000000000000000000000000000000000081526004016114e1906152ec565b60405180910390fd5b61150a306006600088815260200190815260200160002054600185612149565b60405180606001604052803073ffffffffffffffffffffffffffffffffffffffff16815260200185858080601f016020809104026020016040519081016040528093929190818152602001838380828437600081840152601f19601f8201169050808301925050505050505081526020016040518060400160405280600681526020017f6d696e74656400000000000000000000000000000000000000000000000000008152508152506008600087815260200190815260200160002060006006600089815260200190815260200160002054815260200190815260200160002060008201518160000160006101000a81548173ffffffffffffffffffffffffffffffffffffffff021916908373ffffffffffffffffffffffffffffffffffffffff160217905550602082015181600101908051906020019061164e929190613acf565b50604082015181600201908051906020019061166b929190613acf565b50905050600660008681526020019081526020016000206000815480929190611693906157e7565b919050555060066000868152602001908152602001600020549050949350505050565b60006116d36001600084815260200190815260200160002061269c565b9050919050565b7f9f2df0fed2c77648de5860a4cc508cd0818c85b8b8a1ab4ceeef8d981c8956a681565b61170882826126b1565b61172d816001600085815260200190815260200160002061207790919063ffffffff16565b505050565b7f65d7a28e3265b37a6474929f336521b332c1681b933f6cb9f3376673440d862a81565b6000600360008473ffffffffffffffffffffffffffffffffffffffff1673ffffffffffffffffffffffffffffffffffffffff16815260200190815260200160002060008373ffffffffffffffffffffffffffffffffffffffff1673ffffffffffffffffffffffffffffffffffffffff16815260200190815260200160002060009054906101000a900460ff16905092915050565b600063f23a6e6160e01b905095945050505050565b6118076119f5565b73ffffffffffffffffffffffffffffffffffffffff168573ffffffffffffffffffffffffffffffffffffffff16148061184d575061184c856118476119f5565b611756565b5b61188c576040517f08c379a00000000000000000000000000000000000000000000000000000000081526004016118839061524c565b60405180910390fd5b61189985858585856126da565b5050505050565b6118a86119f5565b73ffffffffffffffffffffffffffffffffffffffff168373ffffffffffffffffffffffffffffffffffffffff1614806118ee57506118ed836118e86119f5565b611756565b5b61192d576040517f08c379a00000000000000000000000000000000000000000000000000000000081526004016119249061524c565b60405180910390fd5b61193883838361295f565b505050565b6119478282612b7e565b5050565b6000611973836000018373ffffffffffffffffffffffffffffffffffffffff1660001b612c5e565b905092915050565b60007f4e2312e0000000000000000000000000000000000000000000000000000000007bffffffffffffffffffffffffffffffffffffffffffffffffffffffff1916827bffffffffffffffffffffffffffffffffffffffffffffffffffffffff191614806119ee57506119ed82612cce565b5b9050919050565b600033905090565b600073ffffffffffffffffffffffffffffffffffffffff168473ffffffffffffffffffffffffffffffffffffffff161415611a6d576040517f08c379a0000000000000000000000000000000000000000000000000000000008152600401611a64906153cc565b60405180910390fd5b8151835114611ab1576040517f08c379a0000000000000000000000000000000000000000000000000000000008152600401611aa8906153ac565b60405180910390fd5b6000611abb6119f5565b9050611acc81600087878787612ce0565b60005b8451811015611bd257838181518110611b11577f4e487b7100000000000000000000000000000000000000000000000000000000600052603260045260246000fd5b602002602001015160026000878481518110611b56577f4e487b7100000000000000000000000000000000000000000000000000000000600052603260045260246000fd5b6020026020010151815260200190815260200160002060008873ffffffffffffffffffffffffffffffffffffffff1673ffffffffffffffffffffffffffffffffffffffff1681526020019081526020016000206000828254611bb891906155da565b925050819055508080611bca906157e7565b915050611acf565b508473ffffffffffffffffffffffffffffffffffffffff16600073ffffffffffffffffffffffffffffffffffffffff168273ffffffffffffffffffffffffffffffffffffffff167f4a39dc06d4c0dbc64b70af90fd698a233a518aa5d07e595d983b8c0526c8f7fb8787604051611c4a9291906150c2565b60405180910390a4611c6181600087878787612cf6565b5050505050565b8151835114611cac576040517f08c379a0000000000000000000000000000000000000000000000000000000008152600401611ca3906153ac565b60405180910390fd5b600073ffffffffffffffffffffffffffffffffffffffff168473ffffffffffffffffffffffffffffffffffffffff161415611d1c576040517f08c379a0000000000000000000000000000000000000000000000000000000008152600401611d139061528c565b60405180910390fd5b6000611d266119f5565b9050611d36818787878787612ce0565b60005b8451811015611f36576000858281518110611d7d577f4e487b7100000000000000000000000000000000000000000000000000000000600052603260045260246000fd5b602002602001015190506000858381518110611dc2577f4e487b7100000000000000000000000000000000000000000000000000000000600052603260045260246000fd5b6020026020010151905060006002600084815260200190815260200160002060008b73ffffffffffffffffffffffffffffffffffffffff1673ffffffffffffffffffffffffffffffffffffffff16815260200190815260200160002054905081811015611e64576040517f08c379a0000000000000000000000000000000000000000000000000000000008152600401611e5b9061530c565b60405180910390fd5b8181036002600085815260200190815260200160002060008c73ffffffffffffffffffffffffffffffffffffffff1673ffffffffffffffffffffffffffffffffffffffff16815260200190815260200160002081905550816002600085815260200190815260200160002060008b73ffffffffffffffffffffffffffffffffffffffff1673ffffffffffffffffffffffffffffffffffffffff1681526020019081526020016000206000828254611f1b91906155da565b9250508190555050505080611f2f906157e7565b9050611d39565b508473ffffffffffffffffffffffffffffffffffffffff168673ffffffffffffffffffffffffffffffffffffffff168273ffffffffffffffffffffffffffffffffffffffff167f4a39dc06d4c0dbc64b70af90fd698a233a518aa5d07e595d983b8c0526c8f7fb8787604051611fad9291906150c2565b60405180910390a4611fc3818787878787612cf6565b505050505050565b611fd48261084f565b611fe581611fe06119f5565b612ec6565b611fef8383612b7e565b505050565b611ffc6119f5565b73ffffffffffffffffffffffffffffffffffffffff168173ffffffffffffffffffffffffffffffffffffffff1614612069576040517f08c379a0000000000000000000000000000000000000000000000000000000008152600401612060906153ec565b60405180910390fd5b6120738282612f63565b5050565b600061209f836000018373ffffffffffffffffffffffffffffffffffffffff1660001b613044565b905092915050565b6120af610d5b565b6120ee576040517f08c379a00000000000000000000000000000000000000000000000000000000081526004016120e5906151cc565b60405180910390fd5b6000600560006101000a81548160ff0219169083151502179055507f5db9ee0a495bf2e6ff9c91a7834c1ba4fdd244a5e8aa4e537bd38aeae4b073aa6121326119f5565b60405161213f9190614fc3565b60405180910390a1565b600073ffffffffffffffffffffffffffffffffffffffff168473ffffffffffffffffffffffffffffffffffffffff1614156121b9576040517f08c379a00000000000000000000000000000000000000000000000000000000081526004016121b0906153cc565b60405180910390fd5b60006121c36119f5565b90506121e4816000876121d5886131ca565b6121de886131ca565b87612ce0565b826002600086815260200190815260200160002060008773ffffffffffffffffffffffffffffffffffffffff1673ffffffffffffffffffffffffffffffffffffffff168152602001908152602001600020600082825461224491906155da565b925050819055508473ffffffffffffffffffffffffffffffffffffffff16600073ffffffffffffffffffffffffffffffffffffffff168273ffffffffffffffffffffffffffffffffffffffff167fc3d58168c5ae7397731d063d5bbf3d657854427343f4c083240f7aacaa2d0f6287876040516122c292919061546b565b60405180910390a46122d981600087878787613290565b5050505050565b600073ffffffffffffffffffffffffffffffffffffffff168373ffffffffffffffffffffffffffffffffffffffff161415612350576040517f08c379a0000000000000000000000000000000000000000000000000000000008152600401612347906152cc565b60405180910390fd5b8051825114612394576040517f08c379a000000000000000000000000000000000000000000000000000000000815260040161238b906153ac565b60405180910390fd5b600061239e6119f5565b90506123be81856000868660405180602001604052806000815250612ce0565b60005b8351811015612559576000848281518110612405577f4e487b7100000000000000000000000000000000000000000000000000000000600052603260045260246000fd5b60200260200101519050600084838151811061244a577f4e487b7100000000000000000000000000000000000000000000000000000000600052603260045260246000fd5b6020026020010151905060006002600084815260200190815260200160002060008973ffffffffffffffffffffffffffffffffffffffff1673ffffffffffffffffffffffffffffffffffffffff168152602001908152602001600020549050818110156124ec576040517f08c379a00000000000000000000000000000000000000000000000000000000081526004016124e39061520c565b60405180910390fd5b8181036002600085815260200190815260200160002060008a73ffffffffffffffffffffffffffffffffffffffff1673ffffffffffffffffffffffffffffffffffffffff168152602001908152602001600020819055505050508080612551906157e7565b9150506123c1565b50600073ffffffffffffffffffffffffffffffffffffffff168473ffffffffffffffffffffffffffffffffffffffff168273ffffffffffffffffffffffffffffffffffffffff167f4a39dc06d4c0dbc64b70af90fd698a233a518aa5d07e595d983b8c0526c8f7fb86866040516125d19291906150c2565b60405180910390a450505050565b6125e7610d5b565b15612627576040517f08c379a000000000000000000000000000000000000000000000000000000000815260040161261e9061526c565b60405180910390fd5b6001600560006101000a81548160ff0219169083151502179055507f62e78cea01bee320cd4e420270b5ea74000d11b0c9f74754ebdbfc544b05a25861266b6119f5565b6040516126789190614fc3565b60405180910390a1565b60006126918360000183613460565b60001c905092915050565b60006126aa826000016134b1565b9050919050565b6126ba8261084f565b6126cb816126c66119f5565b612ec6565b6126d58383612f63565b505050565b600073ffffffffffffffffffffffffffffffffffffffff168473ffffffffffffffffffffffffffffffffffffffff16141561274a576040517f08c379a00000000000000000000000000000000000000000000000000000000081526004016127419061528c565b60405180910390fd5b60006127546119f5565b9050612774818787612765886131ca565b61276e886131ca565b87612ce0565b60006002600086815260200190815260200160002060008873ffffffffffffffffffffffffffffffffffffffff1673ffffffffffffffffffffffffffffffffffffffff1681526020019081526020016000205490508381101561280c576040517f08c379a00000000000000000000000000000000000000000000000000000000081526004016128039061530c565b60405180910390fd5b8381036002600087815260200190815260200160002060008973ffffffffffffffffffffffffffffffffffffffff1673ffffffffffffffffffffffffffffffffffffffff16815260200190815260200160002081905550836002600087815260200190815260200160002060008873ffffffffffffffffffffffffffffffffffffffff1673ffffffffffffffffffffffffffffffffffffffff16815260200190815260200160002060008282546128c391906155da565b925050819055508573ffffffffffffffffffffffffffffffffffffffff168773ffffffffffffffffffffffffffffffffffffffff168373ffffffffffffffffffffffffffffffffffffffff167fc3d58168c5ae7397731d063d5bbf3d657854427343f4c083240f7aacaa2d0f62888860405161294092919061546b565b60405180910390a4612956828888888888613290565b50505050505050565b600073ffffffffffffffffffffffffffffffffffffffff168373ffffffffffffffffffffffffffffffffffffffff1614156129cf576040517f08c379a00000000000000000000000000000000000000000000000000000000081526004016129c6906152cc565b60405180910390fd5b60006129d96119f5565b9050612a09818560006129eb876131ca565b6129f4876131ca565b60405180602001604052806000815250612ce0565b60006002600085815260200190815260200160002060008673ffffffffffffffffffffffffffffffffffffffff1673ffffffffffffffffffffffffffffffffffffffff16815260200190815260200160002054905082811015612aa1576040517f08c379a0000000000000000000000000000000000000000000000000000000008152600401612a989061520c565b60405180910390fd5b8281036002600086815260200190815260200160002060008773ffffffffffffffffffffffffffffffffffffffff1673ffffffffffffffffffffffffffffffffffffffff16815260200190815260200160002081905550600073ffffffffffffffffffffffffffffffffffffffff168573ffffffffffffffffffffffffffffffffffffffff168373ffffffffffffffffffffffffffffffffffffffff167fc3d58168c5ae7397731d063d5bbf3d657854427343f4c083240f7aacaa2d0f628787604051612b6f92919061546b565b60405180910390a45050505050565b612b888282611120565b612c5a57600160008084815260200190815260200160002060000160008373ffffffffffffffffffffffffffffffffffffffff1673ffffffffffffffffffffffffffffffffffffffff16815260200190815260200160002060006101000a81548160ff021916908315150217905550612bff6119f5565b73ffffffffffffffffffffffffffffffffffffffff168173ffffffffffffffffffffffffffffffffffffffff16837f2f8788117e7eff1d82e926ec794901d17c78024a50270940304540a733656f0d60405160405180910390a45b5050565b6000612c6a83836134c2565b612cc3578260000182908060018154018082558091505060019003906000526020600020016000909190919091505582600001805490508360010160008481526020019081526020016000208190555060019050612cc8565b600090505b92915050565b6000612cd9826134e5565b9050919050565b612cee8686868686866135c7565b505050505050565b612d158473ffffffffffffffffffffffffffffffffffffffff16613625565b15612ebe578373ffffffffffffffffffffffffffffffffffffffff1663bc197c8187878686866040518663ffffffff1660e01b8152600401612d5b959493929190614fde565b602060405180830381600087803b158015612d7557600080fd5b505af1925050508015612da657506040513d601f19601f82011682018060405250810190612da39190614314565b60015b612e3557612db2615905565b80612dbd5750612dfa565b806040517f08c379a0000000000000000000000000000000000000000000000000000000008152600401612df1919061514a565b60405180910390fd5b6040517f08c379a0000000000000000000000000000000000000000000000000000000008152600401612e2c9061516c565b60405180910390fd5b63bc197c8160e01b7bffffffffffffffffffffffffffffffffffffffffffffffffffffffff1916817bffffffffffffffffffffffffffffffffffffffffffffffffffffffff191614612ebc576040517f08c379a0000000000000000000000000000000000000000000000000000000008152600401612eb3906151ac565b60405180910390fd5b505b505050505050565b612ed08282611120565b612f5f57612ef58173ffffffffffffffffffffffffffffffffffffffff166014613638565b612f038360001c6020613638565b604051602001612f14929190614f89565b6040516020818303038152906040526040517f08c379a0000000000000000000000000000000000000000000000000000000008152600401612f56919061514a565b60405180910390fd5b5050565b612f6d8282611120565b1561304057600080600084815260200190815260200160002060000160008373ffffffffffffffffffffffffffffffffffffffff1673ffffffffffffffffffffffffffffffffffffffff16815260200190815260200160002060006101000a81548160ff021916908315150217905550612fe56119f5565b73ffffffffffffffffffffffffffffffffffffffff168173ffffffffffffffffffffffffffffffffffffffff16837ff6391f5c32d9c69d2a47ea670b442974b53935d1edc7fd64eb21e047a839171b60405160405180910390a45b5050565b600080836001016000848152602001908152602001600020549050600081146131be576000600182613076919061568a565b905060006001866000018054905061308e919061568a565b90508181146131495760008660000182815481106130d5577f4e487b7100000000000000000000000000000000000000000000000000000000600052603260045260246000fd5b906000526020600020015490508087600001848154811061311f577f4e487b7100000000000000000000000000000000000000000000000000000000600052603260045260246000fd5b90600052602060002001819055508387600101600083815260200190815260200160002081905550505b85600001805480613183577f4e487b7100000000000000000000000000000000000000000000000000000000600052603160045260246000fd5b6001900381819060005260206000200160009055905585600101600086815260200190815260200160002060009055600193505050506131c4565b60009150505b92915050565b60606000600167ffffffffffffffff81111561320f577f4e487b7100000000000000000000000000000000000000000000000000000000600052604160045260246000fd5b60405190808252806020026020018201604052801561323d5781602001602082028036833780820191505090505b509050828160008151811061327b577f4e487b7100000000000000000000000000000000000000000000000000000000600052603260045260246000fd5b60200260200101818152505080915050919050565b6132af8473ffffffffffffffffffffffffffffffffffffffff16613625565b15613458578373ffffffffffffffffffffffffffffffffffffffff1663f23a6e6187878686866040518663ffffffff1660e01b81526004016132f5959493929190615046565b602060405180830381600087803b15801561330f57600080fd5b505af192505050801561334057506040513d601f19601f8201168201806040525081019061333d9190614314565b60015b6133cf5761334c615905565b806133575750613394565b806040517f08c379a000000000000000000000000000000000000000000000000000000000815260040161338b919061514a565b60405180910390fd5b6040517f08c379a00000000000000000000000000000000000000000000000000000000081526004016133c69061516c565b60405180910390fd5b63f23a6e6160e01b7bffffffffffffffffffffffffffffffffffffffffffffffffffffffff1916817bffffffffffffffffffffffffffffffffffffffffffffffffffffffff191614613456576040517f08c379a000000000000000000000000000000000000000000000000000000000815260040161344d906151ac565b60405180910390fd5b505b505050505050565b600082600001828154811061349e577f4e487b7100000000000000000000000000000000000000000000000000000000600052603260045260246000fd5b9060005260206000200154905092915050565b600081600001805490509050919050565b600080836001016000848152602001908152602001600020541415905092915050565b60007fd9b67a26000000000000000000000000000000000000000000000000000000007bffffffffffffffffffffffffffffffffffffffffffffffffffffffff1916827bffffffffffffffffffffffffffffffffffffffffffffffffffffffff191614806135b057507f0e89341c000000000000000000000000000000000000000000000000000000007bffffffffffffffffffffffffffffffffffffffffffffffffffffffff1916827bffffffffffffffffffffffffffffffffffffffffffffffffffffffff1916145b806135c057506135bf82613932565b5b9050919050565b6135d58686868686866139ac565b6135dd610d5b565b1561361d576040517f08c379a00000000000000000000000000000000000000000000000000000000081526004016136149061522c565b60405180910390fd5b505050505050565b600080823b905060008111915050919050565b60606000600283600261364b9190615630565b61365591906155da565b67ffffffffffffffff811115613694577f4e487b7100000000000000000000000000000000000000000000000000000000600052604160045260246000fd5b6040519080825280601f01601f1916602001820160405280156136c65781602001600182028036833780820191505090505b5090507f300000000000000000000000000000000000000000000000000000000000000081600081518110613724577f4e487b7100000000000000000000000000000000000000000000000000000000600052603260045260246000fd5b60200101907effffffffffffffffffffffffffffffffffffffffffffffffffffffffffffff1916908160001a9053507f7800000000000000000000000000000000000000000000000000000000000000816001815181106137ae577f4e487b7100000000000000000000000000000000000000000000000000000000600052603260045260246000fd5b60200101907effffffffffffffffffffffffffffffffffffffffffffffffffffffffffffff1916908160001a905350600060018460026137ee9190615630565b6137f891906155da565b90505b60018111156138e4577f3031323334353637383961626364656600000000000000000000000000000000600f861660108110613860577f4e487b7100000000000000000000000000000000000000000000000000000000600052603260045260246000fd5b1a60f81b82828151811061389d577f4e487b7100000000000000000000000000000000000000000000000000000000600052603260045260246000fd5b60200101907effffffffffffffffffffffffffffffffffffffffffffffffffffffffffffff1916908160001a905350600485901c9450806138dd9061578b565b90506137fb565b5060008414613928576040517f08c379a000000000000000000000000000000000000000000000000000000000815260040161391f9061518c565b60405180910390fd5b8091505092915050565b60007f5a05180f000000000000000000000000000000000000000000000000000000007bffffffffffffffffffffffffffffffffffffffffffffffffffffffff1916827bffffffffffffffffffffffffffffffffffffffffffffffffffffffff191614806139a557506139a4826139b4565b5b9050919050565b505050505050565b60007f7965db0b000000000000000000000000000000000000000000000000000000007bffffffffffffffffffffffffffffffffffffffffffffffffffffffff1916827bffffffffffffffffffffffffffffffffffffffffffffffffffffffff19161480613a275750613a2682613a2e565b5b9050919050565b60007f01ffc9a7000000000000000000000000000000000000000000000000000000007bffffffffffffffffffffffffffffffffffffffffffffffffffffffff1916827bffffffffffffffffffffffffffffffffffffffffffffffffffffffff1916149050919050565b6040518060600160405280600073ffffffffffffffffffffffffffffffffffffffff16815260200160608152602001606081525090565b828054613adb906157b5565b90600052602060002090601f016020900481019282613afd5760008555613b44565b82601f10613b1657805160ff1916838001178555613b44565b82800160010185558215613b44579182015b82811115613b43578251825591602001919060010190613b28565b5b509050613b519190613b6f565b5090565b604051806040016040528060608152602001606081525090565b5b80821115613b88576000816000905550600101613b70565b5090565b6000613b9f613b9a846154c5565b615494565b90508083825260208201905082856020860282011115613bbe57600080fd5b60005b85811015613bee5781613bd48882613ca2565b845260208401935060208301925050600181019050613bc1565b5050509392505050565b6000613c0b613c06846154f1565b615494565b90508083825260208201905082856020860282011115613c2a57600080fd5b60005b85811015613c5a5781613c408882613dd3565b845260208401935060208301925050600181019050613c2d565b5050509392505050565b6000613c77613c728461551d565b615494565b905082815260208101848484011115613c8f57600080fd5b613c9a848285615749565b509392505050565b600081359050613cb1816159bb565b92915050565b600082601f830112613cc857600080fd5b8135613cd8848260208601613b8c565b91505092915050565b600082601f830112613cf257600080fd5b8135613d02848260208601613bf8565b91505092915050565b600081359050613d1a816159d2565b92915050565b600081359050613d2f816159e9565b92915050565b600081359050613d4481615a00565b92915050565b600081519050613d5981615a00565b92915050565b600082601f830112613d7057600080fd5b8135613d80848260208601613c64565b91505092915050565b60008083601f840112613d9b57600080fd5b8235905067ffffffffffffffff811115613db457600080fd5b602083019150836001820283011115613dcc57600080fd5b9250929050565b600081359050613de281615a17565b92915050565b60008060408385031215613dfb57600080fd5b6000613e0985828601613ca2565b9250506020613e1a85828601613ca2565b9150509250929050565b600080600080600060a08688031215613e3c57600080fd5b6000613e4a88828901613ca2565b9550506020613e5b88828901613ca2565b945050604086013567ffffffffffffffff811115613e7857600080fd5b613e8488828901613ce1565b935050606086013567ffffffffffffffff811115613ea157600080fd5b613ead88828901613ce1565b925050608086013567ffffffffffffffff811115613eca57600080fd5b613ed688828901613d5f565b9150509295509295909350565b600080600080600060a08688031215613efb57600080fd5b6000613f0988828901613ca2565b9550506020613f1a88828901613ca2565b9450506040613f2b88828901613dd3565b9350506060613f3c88828901613dd3565b925050608086013567ffffffffffffffff811115613f5957600080fd5b613f6588828901613d5f565b9150509295509295909350565b600080600060608486031215613f8757600080fd5b6000613f9586828701613ca2565b935050602084013567ffffffffffffffff811115613fb257600080fd5b613fbe86828701613ce1565b925050604084013567ffffffffffffffff811115613fdb57600080fd5b613fe786828701613ce1565b9150509250925092565b6000806000806080858703121561400757600080fd5b600061401587828801613ca2565b945050602085013567ffffffffffffffff81111561403257600080fd5b61403e87828801613ce1565b935050604085013567ffffffffffffffff81111561405b57600080fd5b61406787828801613ce1565b925050606085013567ffffffffffffffff81111561408457600080fd5b61409087828801613d5f565b91505092959194509250565b600080604083850312156140af57600080fd5b60006140bd85828601613ca2565b92505060206140ce85828601613d0b565b9150509250929050565b600080604083850312156140eb57600080fd5b60006140f985828601613ca2565b925050602061410a85828601613dd3565b9150509250929050565b60008060006060848603121561412957600080fd5b600061413786828701613ca2565b935050602061414886828701613dd3565b925050604061415986828701613dd3565b9150509250925092565b6000806000806080858703121561417957600080fd5b600061418787828801613ca2565b945050602061419887828801613dd3565b93505060406141a987828801613dd3565b925050606085013567ffffffffffffffff8111156141c657600080fd5b6141d287828801613d5f565b91505092959194509250565b600080604083850312156141f157600080fd5b600083013567ffffffffffffffff81111561420b57600080fd5b61421785828601613cb7565b925050602083013567ffffffffffffffff81111561423457600080fd5b61424085828601613ce1565b9150509250929050565b60006020828403121561425c57600080fd5b600061426a84828501613d20565b91505092915050565b6000806040838503121561428657600080fd5b600061429485828601613d20565b92505060206142a585828601613ca2565b9150509250929050565b600080604083850312156142c257600080fd5b60006142d085828601613d20565b92505060206142e185828601613dd3565b9150509250929050565b6000602082840312156142fd57600080fd5b600061430b84828501613d35565b91505092915050565b60006020828403121561432657600080fd5b600061433484828501613d4a565b91505092915050565b60008060008060006060868803121561435557600080fd5b600086013567ffffffffffffffff81111561436f57600080fd5b61437b88828901613d89565b9550955050602086013567ffffffffffffffff81111561439a57600080fd5b6143a688828901613d89565b9350935050604086013567ffffffffffffffff8111156143c557600080fd5b6143d188828901613d5f565b9150509295509295909350565b6000602082840312156143f057600080fd5b60006143fe84828501613dd3565b91505092915050565b6000806000806060858703121561441d57600080fd5b600061442b87828801613dd3565b945050602085013567ffffffffffffffff81111561444857600080fd5b61445487828801613d89565b9350935050604085013567ffffffffffffffff81111561447357600080fd5b61447f87828801613d5f565b91505092959194509250565b6000806040838503121561449e57600080fd5b60006144ac85828601613dd3565b92505060206144bd85828601613dd3565b9150509250929050565b60006144d38383614f6b565b60208301905092915050565b6144e8816156be565b82525050565b6144f7816156be565b82525050565b60006145088261555d565b614512818561558b565b935061451d8361554d565b8060005b8381101561454e57815161453588826144c7565b97506145408361557e565b925050600181019050614521565b5085935050505092915050565b614564816156d0565b82525050565b614573816156dc565b82525050565b614582816156e6565b82525050565b600061459382615568565b61459d818561559c565b93506145ad818560208601615758565b6145b6816158e7565b840191505092915050565b60006145cc82615573565b6145d681856155ad565b93506145e6818560208601615758565b6145ef816158e7565b840191505092915050565b600061460582615573565b61460f81856155be565b935061461f818560208601615758565b614628816158e7565b840191505092915050565b600061463e82615573565b61464881856155cf565b9350614658818560208601615758565b80840191505092915050565b60006146716034836155be565b91507f455243313135353a207472616e7366657220746f206e6f6e204552433131353560008301527f526563656976657220696d706c656d656e7465720000000000000000000000006020830152604082019050919050565b60006146d76020836155be565b91507f537472696e67733a20686578206c656e67746820696e73756666696369656e746000830152602082019050919050565b60006147176028836155be565b91507f455243313135353a204552433131353552656365697665722072656a6563746560008301527f6420746f6b656e730000000000000000000000000000000000000000000000006020830152604082019050919050565b600061477d6014836155be565b91507f5061757361626c653a206e6f74207061757365640000000000000000000000006000830152602082019050919050565b60006147bd602b836155be565b91507f455243313135353a2062616c616e636520717565727920666f7220746865207a60008301527f65726f20616464726573730000000000000000000000000000000000000000006020830152604082019050919050565b60006148236024836155be565b91507f455243313135353a206275726e20616d6f756e7420657863656564732062616c60008301527f616e6365000000000000000000000000000000000000000000000000000000006020830152604082019050919050565b6000614889602c836155be565b91507f455243313135355061757361626c653a20746f6b656e207472616e736665722060008301527f7768696c652070617573656400000000000000000000000000000000000000006020830152604082019050919050565b60006148ef6029836155be565b91507f455243313135353a2063616c6c6572206973206e6f74206f776e6572206e6f7260008301527f20617070726f76656400000000000000000000000000000000000000000000006020830152604082019050919050565b60006149556010836155be565b91507f5061757361626c653a20706175736564000000000000000000000000000000006000830152602082019050919050565b60006149956025836155be565b91507f455243313135353a207472616e7366657220746f20746865207a65726f20616460008301527f64726573730000000000000000000000000000000000000000000000000000006020830152604082019050919050565b60006149fb6032836155be565b91507f455243313135353a207472616e736665722063616c6c6572206973206e6f742060008301527f6f776e6572206e6f7220617070726f76656400000000000000000000000000006020830152604082019050919050565b6000614a616023836155be565b91507f455243313135353a206275726e2066726f6d20746865207a65726f206164647260008301527f65737300000000000000000000000000000000000000000000000000000000006020830152604082019050919050565b6000614ac76038836155be565b91507f455243313135355072657365744d696e7465725061757365723a206d7573742060008301527f68617665206d696e74657220726f6c6520746f206d696e7400000000000000006020830152604082019050919050565b6000614b2d602a836155be565b91507f455243313135353a20696e73756666696369656e742062616c616e636520666f60008301527f72207472616e73666572000000000000000000000000000000000000000000006020830152604082019050919050565b6000614b93603b836155be565b91507f455243313135355072657365744d696e7465725061757365723a206d7573742060008301527f686176652070617573657220726f6c6520746f20756e706175736500000000006020830152604082019050919050565b6000614bf96039836155be565b91507f455243313135355072657365744d696e7465725061757365723a206d7573742060008301527f686176652070617573657220726f6c6520746f207061757365000000000000006020830152604082019050919050565b6000614c5f6017836155cf565b91507f416363657373436f6e74726f6c3a206163636f756e74200000000000000000006000830152601782019050919050565b6000614c9f6029836155be565b91507f455243313135353a2073657474696e6720617070726f76616c2073746174757360008301527f20666f722073656c6600000000000000000000000000000000000000000000006020830152604082019050919050565b6000614d056029836155be565b91507f455243313135353a206163636f756e747320616e6420696473206c656e67746860008301527f206d69736d6174636800000000000000000000000000000000000000000000006020830152604082019050919050565b6000614d6b6028836155be565b91507f455243313135353a2069647320616e6420616d6f756e7473206c656e6774682060008301527f6d69736d617463680000000000000000000000000000000000000000000000006020830152604082019050919050565b6000614dd16021836155be565b91507f455243313135353a206d696e7420746f20746865207a65726f2061646472657360008301527f73000000000000000000000000000000000000000000000000000000000000006020830152604082019050919050565b6000614e376011836155cf565b91507f206973206d697373696e6720726f6c65200000000000000000000000000000006000830152601182019050919050565b6000614e77602f836155be565b91507f416363657373436f6e74726f6c3a2063616e206f6e6c792072656e6f756e636560008301527f20726f6c657320666f722073656c6600000000000000000000000000000000006020830152604082019050919050565b60006040830160008301518482036000860152614eed82826145c1565b91505060208301518482036020860152614f0782826145c1565b9150508091505092915050565b6000606083016000830151614f2c60008601826144df565b5060208301518482036020860152614f4482826145c1565b91505060408301518482036040860152614f5e82826145c1565b9150508091505092915050565b614f7481615732565b82525050565b614f8381615732565b82525050565b6000614f9482614c52565b9150614fa08285614633565b9150614fab82614e2a565b9150614fb78284614633565b91508190509392505050565b6000602082019050614fd860008301846144ee565b92915050565b600060a082019050614ff360008301886144ee565b61500060208301876144ee565b818103604083015261501281866144fd565b9050818103606083015261502681856144fd565b9050818103608083015261503a8184614588565b90509695505050505050565b600060a08201905061505b60008301886144ee565b61506860208301876144ee565b6150756040830186614f7a565b6150826060830185614f7a565b81810360808301526150948184614588565b90509695505050505050565b600060208201905081810360008301526150ba81846144fd565b905092915050565b600060408201905081810360008301526150dc81856144fd565b905081810360208301526150f081846144fd565b90509392505050565b600060208201905061510e600083018461455b565b92915050565b6000602082019050615129600083018461456a565b92915050565b60006020820190506151446000830184614579565b92915050565b6000602082019050818103600083015261516481846145fa565b905092915050565b6000602082019050818103600083015261518581614664565b9050919050565b600060208201905081810360008301526151a5816146ca565b9050919050565b600060208201905081810360008301526151c58161470a565b9050919050565b600060208201905081810360008301526151e581614770565b9050919050565b60006020820190508181036000830152615205816147b0565b9050919050565b6000602082019050818103600083015261522581614816565b9050919050565b600060208201905081810360008301526152458161487c565b9050919050565b60006020820190508181036000830152615265816148e2565b9050919050565b6000602082019050818103600083015261528581614948565b9050919050565b600060208201905081810360008301526152a581614988565b9050919050565b600060208201905081810360008301526152c5816149ee565b9050919050565b600060208201905081810360008301526152e581614a54565b9050919050565b6000602082019050818103600083015261530581614aba565b9050919050565b6000602082019050818103600083015261532581614b20565b9050919050565b6000602082019050818103600083015261534581614b86565b9050919050565b6000602082019050818103600083015261536581614bec565b9050919050565b6000602082019050818103600083015261538581614c92565b9050919050565b600060208201905081810360008301526153a581614cf8565b9050919050565b600060208201905081810360008301526153c581614d5e565b9050919050565b600060208201905081810360008301526153e581614dc4565b9050919050565b6000602082019050818103600083015261540581614e6a565b9050919050565b600060208201905081810360008301526154268184614ed0565b905092915050565b600060208201905081810360008301526154488184614f14565b905092915050565b60006020820190506154656000830184614f7a565b92915050565b60006040820190506154806000830185614f7a565b61548d6020830184614f7a565b9392505050565b6000604051905081810181811067ffffffffffffffff821117156154bb576154ba6158b8565b5b8060405250919050565b600067ffffffffffffffff8211156154e0576154df6158b8565b5b602082029050602081019050919050565b600067ffffffffffffffff82111561550c5761550b6158b8565b5b602082029050602081019050919050565b600067ffffffffffffffff821115615538576155376158b8565b5b601f19601f8301169050602081019050919050565b6000819050602082019050919050565b600081519050919050565b600081519050919050565b600081519050919050565b6000602082019050919050565b600082825260208201905092915050565b600082825260208201905092915050565b600082825260208201905092915050565b600082825260208201905092915050565b600081905092915050565b60006155e582615732565b91506155f083615732565b9250827fffffffffffffffffffffffffffffffffffffffffffffffffffffffffffffffff038211156156255761562461585a565b5b828201905092915050565b600061563b82615732565b915061564683615732565b9250817fffffffffffffffffffffffffffffffffffffffffffffffffffffffffffffffff048311821515161561567f5761567e61585a565b5b828202905092915050565b600061569582615732565b91506156a083615732565b9250828210156156b3576156b261585a565b5b828203905092915050565b60006156c982615712565b9050919050565b60008115159050919050565b6000819050919050565b60007fffffffff0000000000000000000000000000000000000000000000000000000082169050919050565b600073ffffffffffffffffffffffffffffffffffffffff82169050919050565b6000819050919050565b600060ff82169050919050565b82818337600083830152505050565b60005b8381101561577657808201518184015260208101905061575b565b83811115615785576000848401525b50505050565b600061579682615732565b915060008214156157aa576157a961585a565b5b600182039050919050565b600060028204905060018216806157cd57607f821691505b602082108114156157e1576157e0615889565b5b50919050565b60006157f282615732565b91507fffffffffffffffffffffffffffffffffffffffffffffffffffffffffffffffff8214156158255761582461585a565b5b600182019050919050565b600061583b8261573c565b915060ff82141561584f5761584e61585a565b5b600182019050919050565b7f4e487b7100000000000000000000000000000000000000000000000000000000600052601160045260246000fd5b7f4e487b7100000000000000000000000000000000000000000000000000000000600052602260045260246000fd5b7f4e487b7100000000000000000000000000000000000000000000000000000000600052604160045260246000fd5b6000601f19601f8301169050919050565b60008160e01c9050919050565b600060443d1015615915576159b8565b60046000803e6159266000516158f8565b6308c379a0811461593757506159b8565b60405160043d036004823e80513d602482011167ffffffffffffffff82111715615963575050506159b8565b808201805167ffffffffffffffff8111156159825750505050506159b8565b8060208301013d850181111561599d575050505050506159b8565b6159a6826158e7565b60208401016040528296505050505050505b90565b6159c4816156be565b81146159cf57600080fd5b50565b6159db816156d0565b81146159e657600080fd5b50565b6159f2816156dc565b81146159fd57600080fd5b50565b615a09816156e6565b8114615a1457600080fd5b50565b615a2081615732565b8114615a2b57600080fd5b5056fea2646970667358221220d025cb40b5431ed4786b8414a5de416f8285dfaab488472dc182e5c1d419827564736f6c63430008000033",
  "immutableReferences": {},
  "source": "pragma solidity ^0.8.0;\r\n\r\nimport \"@openzeppelin/contracts/token/ERC1155/presets/ERC1155PresetMinterPauser.sol\";\r\nimport \"@openzeppelin/contracts/token/ERC1155/extensions/IERC1155MetadataURI.sol\";\r\nimport \"@openzeppelin/contracts/token/ERC1155/utils/ERC1155Holder.sol\";\r\n\r\n\r\ncontract NFCool is ERC1155PresetMinterPauser, ERC1155Holder {\r\n    using Strings for uint256;\r\n\r\n    struct TokenData {\r\n        string uri;\r\n        string name;\r\n    }\r\n\r\n    struct TokenUnitData {\r\n        address owner;\r\n        string nfcId;\r\n        string status;\r\n    }\r\n\r\n    uint8 tokensCount;\r\n    mapping (uint256 => uint256) private _tokenUnitsCount;\r\n\r\n    mapping(uint256 => TokenData) private _tokenData;\r\n\r\n    mapping(uint256 => mapping(uint256 => TokenUnitData)) private _tokenUnitData;\r\n\r\n    constructor() ERC1155PresetMinterPauser(\"\") {\r\n    }\r\n\r\n    function tokenData(uint256 tokenId) public view virtual returns (TokenData memory) {\r\n        return _tokenData[tokenId];\r\n    }\r\n\r\n    function tokenUnitData(uint256 tokenId, uint256 tokenUnitId) public view virtual returns (TokenUnitData memory) {\r\n        return _tokenUnitData[tokenId][tokenUnitId];\r\n    }\r\n\r\n    function _setTokenURI(uint256 tokenId, string memory _tokenURI) internal virtual {\r\n        _tokenData[tokenId].uri = _tokenURI;\r\n    }\r\n\r\n    function _exists(uint256 tokenId) private view returns (bool) {\r\n        return keccak256(bytes(_tokenData[tokenId].name)) != keccak256(bytes(\"\"));\r\n    }\r\n\r\n    function mintToken(string calldata tokenUri, string calldata tokenName, bytes memory data) external returns (uint256) {\r\n        require(hasRole(MINTER_ROLE, _msgSender()), \"ERC1155PresetMinterPauser: must have minter role to mint\");\r\n\r\n        _mint(address(this), tokensCount, 0, data);\r\n        _tokenData[tokensCount] = TokenData(tokenUri, tokenName);\r\n\r\n        tokensCount++;\r\n        return tokensCount;\r\n    }\r\n\r\n    function mintTokenUnit(uint256 tokenId, string calldata nfcId, bytes memory data) external returns (uint256) {\r\n        require(hasRole(MINTER_ROLE, _msgSender()), \"ERC1155PresetMinterPauser: must have minter role to mint\");\r\n\r\n        _mint(address(this), _tokenUnitsCount[tokenId], 1, data);\r\n        _tokenUnitData[tokenId][_tokenUnitsCount[tokenId]] = TokenUnitData(address(this), nfcId, \"minted\");\r\n\r\n        _tokenUnitsCount[tokenId]++;\r\n        return _tokenUnitsCount[tokenId];\r\n    }\r\n\r\n    function supportsInterface(bytes4 interfaceId) public view virtual override(ERC1155PresetMinterPauser, ERC1155Receiver) returns (bool) {\r\n        return super.supportsInterface(interfaceId);\r\n    }\r\n}\r\n",
  "sourcePath": "C:\\Users\\smlvi\\WebstormProjects\\nfcool-smart-contracts\\contracts\\NFCool.sol",
  "compiler": {
    "name": "solc",
    "version": "0.8.0+commit.c7dfd78e.Emscripten.clang"
  },
  "schemaVersion": "3.4.3",
  "updatedAt": "2021-10-29T10:36:50.186Z",
  "devdoc": {
    "kind": "dev",
    "methods": {
      "balanceOf(address,uint256)": {
        "details": "See {IERC1155-balanceOf}. Requirements: - `account` cannot be the zero address."
      },
      "balanceOfBatch(address[],uint256[])": {
        "details": "See {IERC1155-balanceOfBatch}. Requirements: - `accounts` and `ids` must have the same length."
      },
      "getRoleAdmin(bytes32)": {
        "details": "Returns the admin role that controls `role`. See {grantRole} and {revokeRole}. To change a role's admin, use {_setRoleAdmin}."
      },
      "getRoleMember(bytes32,uint256)": {
        "details": "Returns one of the accounts that have `role`. `index` must be a value between 0 and {getRoleMemberCount}, non-inclusive. Role bearers are not sorted in any particular way, and their ordering may change at any point. WARNING: When using {getRoleMember} and {getRoleMemberCount}, make sure you perform all queries on the same block. See the following https://forum.openzeppelin.com/t/iterating-over-elements-on-enumerableset-in-openzeppelin-contracts/2296[forum post] for more information."
      },
      "getRoleMemberCount(bytes32)": {
        "details": "Returns the number of accounts that have `role`. Can be used together with {getRoleMember} to enumerate all bearers of a role."
      },
      "grantRole(bytes32,address)": {
        "details": "Overload {grantRole} to track enumerable memberships"
      },
      "hasRole(bytes32,address)": {
        "details": "Returns `true` if `account` has been granted `role`."
      },
      "isApprovedForAll(address,address)": {
        "details": "See {IERC1155-isApprovedForAll}."
      },
      "mint(address,uint256,uint256,bytes)": {
        "details": "Creates `amount` new tokens for `to`, of token type `id`. See {ERC1155-_mint}. Requirements: - the caller must have the `MINTER_ROLE`."
      },
      "mintBatch(address,uint256[],uint256[],bytes)": {
        "details": "xref:ROOT:erc1155.adoc#batch-operations[Batched] variant of {mint}."
      },
      "pause()": {
        "details": "Pauses all token transfers. See {ERC1155Pausable} and {Pausable-_pause}. Requirements: - the caller must have the `PAUSER_ROLE`."
      },
      "paused()": {
        "details": "Returns true if the contract is paused, and false otherwise."
      },
      "renounceRole(bytes32,address)": {
        "details": "Overload {renounceRole} to track enumerable memberships"
      },
      "revokeRole(bytes32,address)": {
        "details": "Overload {revokeRole} to track enumerable memberships"
      },
      "safeBatchTransferFrom(address,address,uint256[],uint256[],bytes)": {
        "details": "See {IERC1155-safeBatchTransferFrom}."
      },
      "safeTransferFrom(address,address,uint256,uint256,bytes)": {
        "details": "See {IERC1155-safeTransferFrom}."
      },
      "setApprovalForAll(address,bool)": {
        "details": "See {IERC1155-setApprovalForAll}."
      },
      "unpause()": {
        "details": "Unpauses all token transfers. See {ERC1155Pausable} and {Pausable-_unpause}. Requirements: - the caller must have the `PAUSER_ROLE`."
      },
      "uri(uint256)": {
        "details": "See {IERC1155MetadataURI-uri}. This implementation returns the same URI for *all* token types. It relies on the token type ID substitution mechanism https://eips.ethereum.org/EIPS/eip-1155#metadata[defined in the EIP]. Clients calling this function must replace the `\\{id\\}` substring with the actual token type ID."
      }
    },
    "version": 1
  },
  "userdoc": {
    "kind": "user",
    "methods": {},
    "version": 1
  }
}